:020000040800F2
:10000000180400204501000869030008F7020008F1
:10001000650300088D01000861060008000000006B
:100020000000000000000000000000006104000863
:1000300091010008000000006B030008ED050008B6
:100040005F0100085F0100085F0100085F01000810
:100050005F0100085F010008950100085F010008CA
:100060005F0100085F0100085F0100085F010008F0
:100070005F0100085F0100085F0100085F010008E0
:100080005F0100085F0100085F0100085F010008D0
:100090005F0100085F0100085F0100085F010008C0
:1000A0005F0100085F0100085F0100085F010008B0
:1000B0005F0100085F0100085F0100085F010008A0
:1000C0005F0100085F0100085F0100085F01000890
:1000D0005F0100085F0100085F0100085F01000880
:1000E0005F0100085F0100085F0100085F01000870
:1000F0005F0100085F0100085F0100085F01000860
:100100005F0100085F0100085F0100085F0100084F
:100110005F0100085F0100085F0100085F0100083F
:100120005F0100085F0100085F0100085F0100082F
:10013000DFF80CD000F018F80048004783060008EC
:10014000180400200648804706480047FEE7FEE7FF
:10015000FEE7FEE7FEE7FEE7FEE7FEE7FEE7FEE777
:100160000106000831010008064C074D06E0E06872
:1001700040F0010394E8070098471034AC42F6D3EE
:10018000FFF7DAFF90060008B006000800BFFEE7A0
:100190007047000010B5012000F014F8012805D1C7
:1001A0000448C06880F400400249C860012000F0A3
:1001B00003F810BD001001400149086070470000BD
:1001C0001404014001460020034A12680A400AB1A3
:1001D000012000E000207047140401402DE9F041A7
:1001E000024600250026002000230024002791F865
:1001F00003C00CF00F0591F803C00CF0100CBCF11B
:10020000000F03D091F802C04CEA050591F800C038
:10021000BCF1000F31D0146800202BE04FF0010C2E
:100220000CFA00F3B1F800C00CEA03069E4220D19C
:1002300083004FF00F0C0CFA03F7BC4305FA03FCE4
:100240004CEA040491F803C0BCF1280F06D14FF02A
:10025000010C0CFA00FCC2F814C00AE091F803C0CB
:10026000BCF1480F05D14FF0010C0CFA00FCC2F8AC
:1002700010C0401C0828D1D31460B1F800C0BCF1F4
:10028000FF0F34DD546800202EE000F1080C4FF021
:10029000010808FA0CF3B1F800C00CEA03069E420C
:1002A00021D183004FF00F0C0CFA03F7BC4305FA81
:1002B00003FC4CEA040491F803C0BCF1280F05D1FB
:1002C00000F1080C08FA0CF8C2F8148091F803C089
:1002D000BCF1480F07D100F1080C4FF0010808FAF3
:1002E0000CF8C2F81080401C0828CED35460BDE83A
:1002F000F0810161704700BFFEE7000008B50121F1
:10030000182000F033F84FF40040ADF80000102042
:100310008DF8030003208DF8020069460F48FFF7AF
:100320005DFF0120ADF8000069460D48FFF756FF5C
:100330000220ADF8000069460948FFF74FFF4FF46F
:1003400000410648FFF7D5FF01210548FFF7D1FF1F
:1003500002210348FFF7CDFF08BD00000010014057
:10036000000C014000BFFEE77047704729B1064A04
:1003700092690243044B9A6104E0034A9269824302
:10038000014B9A61704700000010024030B5002117
:100390000022002400232D4D6D6805F00C0121B1D1
:1003A000042905D0082923D105E0294D056022E064
:1003B000274D05601FE0254D6D6805F47012234D33
:1003C0006D6805F48034022505EB92421CB9214D7D
:1003D000554305600BE01D4D6D6805F400351DB1FA
:1003E0001C4D5543056002E0194D5543056002E080
:1003F000174D056000BF00BF144D6D6805F0F0019A
:100400000909154D6B5C0568DD4045600F4D6D6851
:1004100005F4E061090A104D6B5C4568DD408560BC
:100420000A4D6D6805F46051C90A0B4D6B5C456857
:10043000DD40C560054D6D6805F44041890B074DF1
:100440006B5CC568B5FBF3F5056130BD001002407B
:1004500000127A0000093D0000000020100000207A
:10046000704710B500F002F810BD00000CB5002078
:10047000019000903348006840F4803031490860B2
:1004800000BF3048006800F4003000900198401C24
:100490000190009818B90198B0F5A06FF1D12948E2
:1004A000006800F4003010B10120009001E000204D
:1004B00000900098012843D12348006840F01000C4
:1004C000214908600846006820F0030008600846DB
:1004D000006840F0020008601A4840681949486006
:1004E0000846406848600846406840F480604860BC
:1004F0000846406820F47C1048600846406840F494
:10050000E81048600846006840F08070086000BF4E
:100510000C48006800F000700028F9D009484068D5
:1005200020F00300074948600846406840F0020098
:10053000486000BF0348406800F00C000828F9D16B
:100540000CBD00000010024000200240042808D129
:100550004FF0E021096941F004014FF0E022116100
:1005600007E04FF0E021096921F004014FF0E0229B
:100570001161704730B50146B1F1807F01D3012090
:1005800030BD21F07F40401E4FF0E02250615017F7
:100590000F22002807DA13071D0E094B00F00F0485
:1005A000241F1D5503E013071C0E064B1C5400BFEF
:1005B00000204FF0E0229061072010610020DFE76B
:1005C00018ED00E000E400E010B586B001A8FFF7E8
:1005D000DDFE02988408E4082046FFF7CBFF6FF0A9
:1005E0000400FFF7B3FF06B010BD00000348C06869
:1005F00080F400400149C8607047000000100140CD
:1006000010B51348006840F0010011490860084621
:100610004068104908400E494860084600680E4985
:1006200008400B4908600846006820F480200860F4
:100630000846406820F4FE0048604FF41F008860C0
:10064000FFF70FFF4FF000600449086010BD000085
:10065000001002400000FFF8FFFFF6FE08ED00E08A
:1006600000BFFEE702E008C8121F08C1002AFAD145
:1006700070477047002001E001C1121F002AFBD122
:100680007047FFF73BFEFFF79FFF00BFFEE700004C
:10069000B0060008000000201400000064060008F6
:1006A000C4060008140000200404000074060008BA
:1006B0000000000001020304010203040607080908
:0406C0000204060822
:0400000508000131BD
:00000001FF
