:020000040800F2
:1000000000040020450100080D0400089B030008BF
:10001000090400080F0200083D0700080000000066
:10002000000000000000000000000000D9040008EB
:10003000350200080000000095040008C50500080E
:100040005F0100085F0100085F0100085F01000810
:100050005F0100085F010008390200085F01000825
:100060005F0100085F0100085F0100085F010008F0
:100070005F0100085F0100085F0100085F010008E0
:100080005F0100085F0100085F0100085F010008D0
:100090005F0100085F0100085F0100085F010008C0
:1000A0005F0100085F0100085F0100085F010008B0
:1000B0005F0100085F0100085F0100085F010008A0
:1000C0005F0100085F0100085F0100085F01000890
:1000D0005F0100085F0100085F0100085F01000880
:1000E0005F0100085F0100085F0100085F01000870
:1000F0005F0100085F0100085F0100085F01000860
:100100005F0100085F0100085F0100085F0100084F
:100110005F0100085F010008390600085F01000860
:100120005F0100085F0100085F0100085F0100082F
:10013000DFF80CD000F018F8004800475F0700080F
:10014000000400200648804706480047FEE7FEE717
:10015000FEE7FEE7FEE7FEE7FEE7FEE7FEE7FEE777
:10016000D905000831010008064C074D06E0E0689B
:1001700040F0010394E8070098471034AC42F6D3EE
:10018000FFF7DAFF740700088407000810B500F0D5
:1001900029F800F001F810BD0EB50121102000F083
:1001A0007BF90020ADF80600ADF8020041F61F40D3
:1001B000ADF8000042F21070ADF8040000208DF898
:1001C00008006946064800F067FA01221146044813
:1001D00000F058FA0121024800F03FFA0EBD00007D
:1001E0000010004008B54FF4407000F049F9362087
:1001F0008DF8000004208DF8010000208DF8020029
:1002000001208DF80300684600F002F908BD00BF28
:10021000FEE7000029B1064A52680243044B5A60C7
:1002200004E0034A52688243014B5A607047000061
:10023000002004E07047000010B5012000F014F821
:10024000012805D10448C06880F400400249C86014
:10025000012000F003F810BD0010014001490860C2
:10026000704700001404014001460020034A126850
:100270000A400AB1012000E0002070471404014048
:100280002DE9F0410246002500260020002300242D
:10029000002791F803C00CF00F0591F803C00CF093
:1002A000100CBCF1000F03D091F802C04CEA050518
:1002B00091F800C0BCF1000F31D0146800202BE091
:1002C0004FF0010C0CFA00F3B1F800C00CEA030681
:1002D0009E4220D183004FF00F0C0CFA03F7BC4371
:1002E00005FA03FC4CEA040491F803C0BCF1280FA2
:1002F00006D14FF0010C0CFA00FCC2F814C00AE061
:1003000091F803C0BCF1480F05D14FF0010C0CFA75
:1003100000FCC2F810C0401C0828D1D31460B1F80A
:1003200000C0BCF1FF0F34DD546800202EE000F166
:10033000080C4FF0010808FA0CF3B1F800C00CEA01
:1003400003069E4221D183004FF00F0C0CFA03F7F5
:10035000BC4305FA03FC4CEA040491F803C0BCF169
:10036000280F05D100F1080C08FA0CF8C2F8148027
:1003700091F803C0BCF1480F07D100F1080C4FF011
:10038000010808FA0CF8C2F81080401C0828CED3E7
:100390005460BDE8F0810161704700BFFEE70000D6
:1003A00008B50121182000F087F84FF40040ADF89F
:1003B000000010208DF8030003208DF8020069462C
:1003C0000F48FFF75DFF0120ADF8000069460D48BA
:1003D000FFF756FF0220ADF8000069460948FFF715
:1003E0004FFF4FF400410648FFF7D5FF01210548B4
:1003F000FFF7D1FF02210348FFF7CDFF08BD000042
:1004000000100140000C014000BFFEE770470000F3
:1004100070B5002100230F22C47804B3154C246862
:1004200004F4E064C4F5E064210AC1F10403CA40A5
:10043000447804FA03F184781440214309010E4CF6
:100440000678A155047804F01F050124AC40057816
:100450006D11AD0005F1E025C5F8004109E0047813
:1004600004F01F050124AC40044D0678761145F8D0
:10047000264070BD0CED00E000E400E080E100E00B
:1004800002490143024A1160704700000000FA056A
:100490000CED00E07047000029B1064AD269024322
:1004A000044BDA6104E0034AD2698243014BDA610A
:1004B000704700000010024029B1064A92690243C9
:1004C000044B9A6104E0034A92698243014B9A61AA
:1004D0007047000000100240704710B500F002F8AD
:1004E00010BD00000CB5002001900090334800685A
:1004F00040F480303149086000BF3048006800F4A3
:10050000003000900198401C0190009818B90198A3
:10051000B0F5A06FF1D12948006800F4003010B1A7
:100520000120009001E0002000900098012843D1B4
:100530002348006840F01000214908600846006820
:1005400020F0030008600846006840F002000860E0
:100550001A4840681949486008464068486008469B
:10056000406840F4806048600846406820F47C1091
:1005700048600846406840F4E81048600846006853
:1005800040F08070086000BF0C48006800F0007008
:100590000028F9D00948406820F003000749486066
:1005A0000846406840F00200486000BF03484068C9
:1005B00000F00C000828F9D10CBD0000001002402A
:1005C000002002400348C06880F400400149C86030
:1005D000704700000010014010B51348006840F05B
:1005E00001001149086008464068104908400E495A
:1005F0004860084600680E4908400B4908600846F4
:10060000006820F4802008600846406820F4FE005E
:1006100048604FF41F008860FFF75FFF4FF00060F5
:100620000449086010BD0000001002400000FFF8FF
:10063000FFFFF6FE08ED00E010B50121044800F0D0
:1006400018F8012803D10121014800F003F810BD7A
:1006500000100040CA430282704721B1028842F074
:100660000102028004E002884FF6FE731A40028005
:10067000704702460020138A0B400BB1012000E0B6
:10068000002070471AB183890B43838102E083897C
:100690008B43838170470000002202881D4B9842E3
:1006A0000ED01D4B98420BD0B0F1804F08D01B4BA1
:1006B000984205D01A4B984202D01A4B984204D166
:1006C0004FF68F731A404B881A43174B984207D046
:1006D000164B984204D04FF6FF431A40CB881A437A
:1006E00002808B8883850B8803850A4B98420BD048
:1006F000094B984208D00E4B984205D00D4B9842BA
:1007000002D00D4B984201D10B7A038601238382DC
:1007100070470000002C01400034014000040040FC
:1007200000080040000C0040001000400014004091
:1007300000400140004401400048014000BFFEE786
:1007400002E008C8121F08C1002AFAD1704770479A
:10075000002001E001C1121F002AFBD17047FFF702
:100760001FFE0121C804FFF755FDFFF70FFD00BF75
:10077000FEE70000840700080000002000040000DD
:040780005007000816
:0400000508000131BD
:00000001FF
