:020000040800F2
:1000000018040020450100088504000813040008B6
:100010008104000889020008950A00080000000019
:1000200000000000000000000000000019060008A9
:10003000AD02000800000000D50500080507000813
:100040005F0100085F0100085F0100085F01000810
:100050005F0100085F010008B10200085F010008AD
:100060005F0100085F0100085F0100085F010008F0
:100070005F0100085F0100085F0100085F010008E0
:100080005F0100085F0100085F0100085F010008D0
:100090005F0100085F0100085F0100085F010008C0
:1000A0005F0100085F0100085F0100087907000890
:1000B000110800085F0100085F0100085F010008E7
:1000C0005F0100085F0100085F0100085F01000890
:1000D0005F0100085F0100085F0100085F01000880
:1000E0005F0100085F0100085F0100085F01000870
:1000F0005F0100085F0100085F0100085F01000860
:100100005F0100085F0100085F0100085F0100084F
:100110005F0100085F010008AD0800085F010008EA
:100120005F0100085F0100085F0100085F0100082F
:10013000DFF80CD000F096F800480047B90A000834
:10014000180400200648804706480047FEE7FEE7FF
:10015000FEE7FEE7FEE7FEE7FEE7FEE7FEE7FEE777
:10016000190700083101000830B480EA010202F0EA
:10017000004530F0004221F0004013D090B1C30D93
:10018000D40DC2F31601C0F31600E41A41F40001C5
:1001900040F400027D34914201D3641C00E0490028
:1001A000002C02DA30BC002070474FF4000000231E
:1001B000914201D3891A034340084FEA4101F7D124
:1001C00051B1914202D14FF0004105E002D24FF00F
:1001D000010101E06FF0010103EBC450284430BC81
:1001E00000F009B8C10F80EAE0700844CA079623FE
:1001F000002100F009B80029A8BF7047401C490041
:1002000008BF20F00100704710B4B0FA80FC00FA7B
:100210000CF050EA010404BF10BC704749B1CCF1A6
:10022000200421FA04F411FA0CF118BF0121214332
:100230000843A3EB0C01CB1D4FEA00614FEA1020ED
:1002400042BF002010BC704700EBC350104400298F
:10025000A4BF10BC7047401C490008BF20F001003B
:1002600010BC7047064C074D06E0E06840F0010303
:1002700094E8070098471034AC42F6D3FFF75CFFD0
:10028000DC0A0008FC0A000800BFFEE729B1064AA4
:1002900052680243044B5A6004E0034A52688243A6
:1002A000014B5A6070470000002004E070470000D6
:1002B00010B5012000F014F8012805D10448C068E9
:1002C00080F400400249C860012000F003F810BD2E
:1002D000001001400149086070470000140401400B
:1002E00001460020034A12680A400AB1012000E0DA
:1002F00000207047140401402DE9F041024600251A
:100300000026002000230024002791F803C00CF0F1
:100310000F0591F803C00CF0100CBCF1000F03D0D6
:1003200091F802C04CEA050591F800C0BCF1000F3D
:1003300031D0146800202BE04FF0010C0CFA00F3D0
:10034000B1F800C00CEA03069E4220D183004FF0B2
:100350000F0C0CFA03F7BC4305FA03FC4CEA040447
:1003600091F803C0BCF1280F06D14FF0010C0CFA34
:1003700000FCC2F814C00AE091F803C0BCF1480FB9
:1003800005D14FF0010C0CFA00FCC2F810C0401C63
:100390000828D1D31460B1F800C0BCF1FF0F34DDE0
:1003A000546800202EE000F1080C4FF0010808FA14
:1003B0000CF3B1F800C00CEA03069E4221D1830081
:1003C0004FF00F0C0CFA03F7BC4305FA03FC4CEAA0
:1003D000040491F803C0BCF1280F05D100F1080C0A
:1003E00008FA0CF8C2F8148091F803C0BCF1480F69
:1003F00007D100F1080C4FF0010808FA0CF8C2F818
:100400001080401C0828CED35460BDE8F081016103
:10041000704700BFFEE7000008B50121182000F07A
:10042000EBF84FF40040ADF8000010208DF8030009
:1004300003208DF8020069460F48FFF75DFF012099
:10044000ADF8000069460D48FFF756FF0220ADF8F1
:10045000000069460948FFF74FFF4FF40041064886
:10046000FFF7D5FF01210548FFF7D1FF022103481F
:10047000FFF7CDFF08BD000000100140000C014057
:1004800000BFFEE77047000070B5002100230F2277
:10049000C47804B3154C246804F4E064C4F5E06443
:1004A000210AC1F10403CA40447804FA03F18478B4
:1004B0001440214309010E4C0678A155047804F03C
:1004C0001F050124AC4005786D11AD0005F1E02554
:1004D000C5F8004109E0047804F01F050124AC4090
:1004E000044D0678761145F8264070BD0CED00E00D
:1004F00000E400E080E100E002490143024A1160AB
:10050000704700000000FA050CED00E000B589B06E
:100510000121042000F070F80121082000F05CF8AF
:1005200018208DF807000120ADF8040003208DF895
:10053000060001A92548FFF7DFFE4FF44070FFF7E2
:10054000DBFF32208DF8000001208DF80100002033
:100550008DF8020001208DF803006846FFF794FF34
:100560000020ADF81E00ADF81A004720ADF81800C5
:1005700040F2E730ADF81C0000208DF8200006A9FD
:10058000134800F035FA6020ADF808000120ADF8FE
:100590000A000020ADF80C004FF4FA70ADF80E0020
:1005A0000020ADF81000ADF81200ADF8160002A959
:1005B000074800F0BBF90821054800F00CFA0121BA
:1005C000034800F087F909B000BD000000080140B1
:1005D000000C00407047000029B1064AD26902436E
:1005E000044BDA6104E0034AD2698243014BDA61C9
:1005F000704700000010024029B1064A9269024388
:10060000044B9A6104E0034A92698243014B9A6168
:100610007047000000100240704710B500F002F86B
:1006200010BD00000CB50020019000903348006818
:1006300040F480303149086000BF3048006800F461
:10064000003000900198401C0190009818B9019862
:10065000B0F5A06FF1D12948006800F4003010B166
:100660000120009001E0002000900098012843D173
:100670002348006840F010002149086008460068DF
:1006800020F0030008600846006840F0020008609F
:100690001A4840681949486008464068486008465A
:1006A000406840F4806048600846406820F47C1050
:1006B00048600846406840F4E81048600846006812
:1006C00040F08070086000BF0C48006800F00070C7
:1006D0000028F9D00948406820F003000749486025
:1006E0000846406840F00200486000BF0348406888
:1006F00000F00C000828F9D10CBD000000100240E9
:10070000002002400348C06880F400400149C860EE
:10071000704700000010014010B51348006840F019
:1007200001001149086008464068104908400E4918
:100730004860084600680E4908400B4908600846B2
:10074000006820F4802008600846406820F4FE001D
:1007500048604FF41F008860FFF75FFF4FF00060B4
:100760000449086010BD0000001002400000FFF8BE
:10077000FFFFF6FE08ED00E070B502211E4800F014
:10078000C4F801280DD102211B4800F0A0F81A4836
:1007900000F0ACF819490880174800F0AAF8184989
:1007A00008801648008800B314480088401CFFF7F2
:1007B00019FD044612490988491C642201FB02F014
:1007C000FFF710FD05462146FFF7CEFC0D490860F6
:1007D0000A480088401CFFF705FD044621460A48E8
:1007E000FFF7C2FC0949086004E0002005490860E1
:1007F0000649086070BD0000002C01400E0000207A
:100800000C00002010000020002474491400002077
:1008100010B50121880700F078F8012808D1214897
:100820008088401C1F4988800121880700F04FF80C
:100830000221480700F069F8012831D10221800720
:1008400000F045F81748407878B900214FF0804013
:1008500000F0CCF80120134948700020888008700F
:100860000221480700F0AEF81AE04FF0804000F097
:100870003DF80C4948800020487001200870002095
:10088000888000214FF0804000F09CF805484088A7
:10089000401C04498988C1EB0141084402490860B1
:1008A00010BD0000000000200800002010B501214C
:1008B000044800F021F8012803D10121014800F08B
:1008C00003F810BD00100040CA4302827047CA43BB
:1008D0000282704721B1028842F00102028004E0E6
:1008E00002884FF6FE731A40028070470146888ED8
:1008F00070470146088F704702460020138A0B405C
:100900000BB1012000E00020704730B50246002006
:1009100000230024158A05EA0103958905EA0104EC
:1009200013B10CB1012000E0002030BD70B50024EF
:1009300000220023058C4FF6FE7635400584028C9C
:100940008388048B4FF68F752C40B51E2C400D8884
:100950002C43751E2A400D892A434D882A43144D85
:10096000A8420BD0134DA84208D0134DA84205D081
:10097000124DA84202D0124DA84213D14FF6F7757E
:100980002A404D892A434FF6FB752A408D882A4319
:100990004FF6FF652B404FF6FF552B408D892B43BB
:1009A000CD892B4383800483CD888586028470BDE6
:1009B000002C01400034014000400140004401404F
:1009C000004801400A460021018C4FF6FD73194092
:1009D0001143018470470A460021018B4FF6F773DB
:1009E00019401143018370478185704781847047A6
:1009F000002202881D4B98420ED01D4B98420BD00E
:100A0000B0F1804F08D01B4B984205D01A4B98424A
:100A100002D01A4B984204D14FF68F731A404B887C
:100A20001A43174B984207D0164B984204D04FF602
:100A3000FF431A40CB881A4302808B8883850B883A
:100A400003850A4B98420BD0094B984208D00E4BB5
:100A5000984205D00D4B984202D00D4B984201D1DF
:100A60000B7A03860123838270470000002C01402B
:100A7000003401400004004000080040000C004029
:100A800000100040001400400040014000440140BC
:100A90000048014000BFFEE702E008C8121F08C17D
:100AA000002AFAD170477047002001E001C1121FEF
:100AB000002AFBD170470000FFF7AEFC012188043B
:100AC000FFF7E4FBFFF722FD40F2CF710248FFF78A
:100AD0008BFF00BFFEE70000000C0040FC0A00088E
:100AE0000000002018000000980A0008140B0008FD
:100AF0001800002000040000A80A00080000000000
:100B000000000000000000000000000000000000E5
:040B100000000000E1
:0400000508000131BD
:00000001FF
