:020000040800F2
:100000000004002045010008BD0400083F0400086A
:10001000B90400088D010008B906000800000000BE
:10002000000000000000000000000000690500085A
:100030009101000800000000450500085506000871
:100040005F0100085F0100085F0100085F01000810
:100050005F0100085F010008950100085F010008CA
:100060005F0100085F0100085F0100085F010008F0
:100070005F0100085F0100085F0100085F010008E0
:100080005F0100085F0100085F0100085F010008D0
:100090005F0100085F0100085F0100085F010008C0
:1000A0005F0100085F0100085F0100085F010008B0
:1000B0005F0100085F0100085F0100085F010008A0
:1000C0005F0100085F0100085F0100085F01000890
:1000D0005F0100085F0100085F0100085F01000880
:1000E0005F0100085F0100085F0100085F01000870
:1000F0005F0100085F0100085F0100085F01000860
:100100005F0100085F0100085F0100085F0100084F
:100110005F0100085F0100085F0100085F0100083F
:100120005F0100085F0100085F0100085F0100082F
:10013000DFF80CD000F018F800480047DB06000894
:10014000000400200648804706480047FEE7FEE717
:10015000FEE7FEE7FEE7FEE7FEE7FEE7FEE7FEE777
:100160005906000831010008064C074D06E0E0681A
:1001700040F0010394E8070098471034AC42F6D3EE
:10018000FFF7DAFFE8060008F806000800BFFEE700
:100190007047000010B5012000F038F8012805D1A3
:1001A0000448C06880F400400249C860012000F0A3
:1001B00003F810BD001001400149086070470000BD
:1001C000140401400EB50121092000F0BDF9012001
:1001D000ADF8080048208DF80B0002A90A4800F08D
:1001E000A1F80021012000F07DF8012000908DF899
:1001F000060000208DF804000C208DF805006846EC
:1002000000F010F80EBD0000000C01400146002077
:10021000034A12680A400AB1012000E0002070473A
:1002200014040140002123498279002A3AD00A4669
:10023000126803689A430B461A600A1D1268036825
:100240009A430B1D1A60027911440A6803681A4325
:100250000A60184A0832126803689A43154B08333B
:100260001A601A1D126803689A43124B0C331A6005
:100270004279102A0ED11A1F126803681A430D4BD7
:1002800008331A601A1D126803681A43094B0C33AD
:100290001A600DE00749427911440A6803681A435D
:1002A0000A6005E0027911440A6803689A430A600B
:1002B000704700000004014008B54FF4407000F0A2
:1002C00037F906208DF8000001208DF80300052085
:1002D0008DF8010000208DF80200684600F0F0F86B
:1002E00008BD000030B500228B071C0F0F2303FA56
:1002F00004F20B4B8C1053F824309343084C8D10B0
:1003000044F8253023468C1053F824308C07240FF2
:1003100000FA04F42343024C8D1044F8253030BD1C
:10032000080001402DE9F04102460025002600208A
:1003300000230024002791F803C00CF00F0591F86A
:1003400003C00CF0100CBCF1000F03D091F802C0F8
:100350004CEA050591F800C0BCF1000F31D01468DB
:1003600000202BE04FF0010C0CFA00F3B1F800C0B4
:100370000CEA03069E4220D183004FF00F0C0CFACA
:1003800003F7BC4305FA03FC4CEA040491F803C0EC
:10039000BCF1280F06D14FF0010C0CFA00FCC2F89A
:1003A00014C00AE091F803C0BCF1480F05D14FF02A
:1003B000010C0CFA00FCC2F810C0401C0828D1D374
:1003C0001460B1F800C0BCF1FF0F34DD54680020A8
:1003D0002EE000F1080C4FF0010808FA0CF3B1F818
:1003E00000C00CEA03069E4221D183004FF00F0C9F
:1003F0000CFA03F7BC4305FA03FC4CEA040491F839
:1004000003C0BCF1280F05D100F1080C08FA0CF864
:10041000C2F8148091F803C0BCF1480F07D100F175
:10042000080C4FF0010808FA0CF8C2F81080401CC4
:100430000828CED35460BDE8F0810161704700BF49
:10044000FEE710B5FFF7BEFEFFF736FF10BD000058
:1004500008B50121182000F077F84FF40040ADF8FE
:10046000000010208DF8030003208DF8020069467B
:100470000F48FFF757FF0120ADF8000069460D480F
:10048000FFF750FF0220ADF8000069460948FFF76A
:1004900049FF4FF400410648FFF7CFFF012105480F
:1004A000FFF7CBFF02210348FFF7C7FF08BD00009D
:1004B00000100140000C014000BFFEE77047000043
:1004C00070B5002100230F22C47804B3154C2468B2
:1004D00004F4E064C4F5E064210AC1F10403CA40F5
:1004E000447804FA03F184781440214309010E4C46
:1004F0000678A155047804F01F050124AC40057866
:100500006D11AD0005F1E025C5F8004109E0047862
:1005100004F01F050124AC40044D0678761145F81F
:10052000264070BD0CED00E000E400E080E100E05A
:1005300002490143024A1160704700000000FA05B9
:100540000CED00E07047000029B1064A92690243B1
:10055000044B9A6104E0034A92698243014B9A6119
:100560007047000000100240704710B500F002F81C
:1005700010BD00000CB500200190009033480068C9
:1005800040F480303149086000BF3048006800F412
:10059000003000900198401C0190009818B9019813
:1005A000B0F5A06FF1D12948006800F4003010B117
:1005B0000120009001E0002000900098012843D124
:1005C0002348006840F01000214908600846006890
:1005D00020F0030008600846006840F00200086050
:1005E0001A4840681949486008464068486008460B
:1005F000406840F4806048600846406820F47C1001
:1006000048600846406840F4E810486008460068C2
:1006100040F08070086000BF0C48006800F0007077
:100620000028F9D00948406820F0030007494860D5
:100630000846406840F00200486000BF0348406838
:1006400000F00C000828F9D10CBD00000010024099
:10065000002002407047000010B51348006840F0C9
:1006600001001149086008464068104908400E49D9
:100670004860084600680E4908400B490860084673
:10068000006820F4802008600846406820F4FE00DE
:1006900048604FF41F008860FFF767FF4FF000606D
:1006A0000449086010BD0000001002400000FFF87F
:1006B000FFFFF6FE08ED00E000BFFEE702E008C81D
:1006C000121F08C1002AFAD170477047002001E0CC
:1006D00001C1121F002AFBD17047FFF7B9FEFFF7D7
:1006E000B0FE00BFFEE70000F80600080000002092
:0806F00000040000CC06000824
:0400000508000131BD
:00000001FF
