:020000040800F2
:1000000010040020450100088903000817030008B8
:10001000850300088D010008A90B000800000000FE
:100020000000000000000000000000001D050008A6
:10003000B1010008000000001104000809060008D2
:100040005F0100085F0100085F0100085F01000810
:100050005F0100085F010008B50100085F010008AA
:100060005F0100085F0100085F0100085F010008F0
:100070005F0100085F0100085F0100085F010008E0
:100080005F0100085F0100085F0100085F010008D0
:100090005F0100085F0100085F0100085F010008C0
:1000A0005F0100085F0100085F0100085F010008B0
:1000B000BD0800085F0100085F0100085F0100083B
:1000C0005F0100085F0100085F0100085F01000890
:1000D0005F0100085F0100085F0100085F01000880
:1000E0005F0100085F0100085F0100085F01000870
:1000F0005F0100085F0100085F0100085F01000860
:100100005F0100085F0100085F0100085F0100084F
:100110005F0100085F0100085D0900085F01000839
:100120005F0100085F0100085F0100085F0100082F
:10013000DFF80CD000F018F800480047CB0B00089F
:10014000100400200648804706480047FEE7FEE707
:10015000FEE7FEE7FEE7FEE7FEE7FEE7FEE7FEE777
:100160001D06000831010008064C074D06E0E06856
:1001700040F0010394E8070098471034AC42F6D3EE
:10018000FFF7DAFFE00B0008000C000800BFFEE7F5
:1001900029B1064A52680243044B5A6004E0034AFC
:1001A00052688243014B5A6070470000002004E00F
:1001B0007047000010B5012000F014F8012805D1A7
:1001C0000448C06880F400400249C860012000F083
:1001D00003F810BD0010014001490860704700009D
:1001E0001404014001460020034A12680A400AB183
:1001F000012000E000207047140401402DE9F04187
:10020000024600250026002000230024002791F844
:1002100003C00CF00F0591F803C00CF0100CBCF1FA
:10022000000F03D091F802C04CEA050591F800C018
:10023000BCF1000F31D0146800202BE04FF0010C0E
:100240000CFA00F3B1F800C00CEA03069E4220D17C
:1002500083004FF00F0C0CFA03F7BC4305FA03FCC4
:100260004CEA040491F803C0BCF1280F06D14FF00A
:10027000010C0CFA00FCC2F814C00AE091F803C0AB
:10028000BCF1480F05D14FF0010C0CFA00FCC2F88C
:1002900010C0401C0828D1D31460B1F800C0BCF1D4
:1002A000FF0F34DD546800202EE000F1080C4FF001
:1002B000010808FA0CF3B1F800C00CEA03069E42EC
:1002C00021D183004FF00F0C0CFA03F7BC4305FA61
:1002D00003FC4CEA040491F803C0BCF1280F05D1DB
:1002E00000F1080C08FA0CF8C2F8148091F803C069
:1002F000BCF1480F07D100F1080C4FF0010808FAD3
:100300000CF8C2F81080401C0828CED35460BDE819
:10031000F0810161704700BFFEE7000008B50121D0
:10032000182000F0EBF84FF40040ADF8000010206A
:100330008DF8030003208DF8020069460F48FFF78F
:100340005DFF0120ADF8000069460D48FFF756FF3C
:100350000220ADF8000069460948FFF74FFF4FF44F
:1003600000410648FFF7D5FF01210548FFF7D1FFFF
:1003700002210348FFF7CDFF08BD00000010014037
:10038000000C014000BFFEE77047000070B500217F
:1003900000230F22C47804B3154C246804F4E064ED
:1003A000C4F5E064210AC1F10403CA40447804FAA8
:1003B00003F184781440214309010E4C0678A155BD
:1003C000047804F01F050124AC4005786D11AD00E0
:1003D00005F1E025C5F8004109E0047804F01F05A7
:1003E0000124AC40044D0678761145F8264070BDD6
:1003F0000CED00E000E400E080E100E00249014390
:10040000024A1160704700000000FA050CED00E0A0
:100410007047000000B589B00121042000F06EF89B
:100420000121084600F05AF828208DF80B00012021
:10043000ADF8080003208DF80A0002A92648FFF74E
:10044000DDFE4FF44070FFF7D9FF1C208DF804004B
:1004500001208DF8050000208DF8060001208DF8A0
:10046000070001A8FFF792FF0020ADF81E00ADF8CD
:100470001A0041F61F40ADF8180042F20F70ADF8B7
:100480001C0000208DF8200006A94FF0804000F0ED
:1004900039FB0020ADF80C00ADF80E000120ADF8DE
:1004A00010000020ADF81400ADF8120003A94FF0C1
:1004B000804000F091FA03214FF0804000F05CFA98
:1004C00001220321900700F0DDFA0121880700F0E6
:1004D00059FA09B000BD00000008014029B1064AE0
:1004E000D2690243044BDA6104E0034AD2698243D1
:1004F000014BDA61704700000010024029B1064A42
:1005000092690243044B9A6104E0034A9269824370
:10051000014B9A617047000000100240704710B50F
:1005200000F002F810BD00000CB500200190009012
:100530003348006840F480303149086000BF3048DB
:10054000006800F4003000900198401C0190009871
:1005500018B90198B0F5A06FF1D12948006800F4EE
:10056000003010B10120009001E0002000900098C0
:10057000012843D12348006840F010002149086059
:100580000846006820F0030008600846006840F054
:10059000020008601A4840681949486008464068E7
:1005A00048600846406840F48060486008464068FB
:1005B00020F47C1048600846406840F4E810486029
:1005C0000846006840F08070086000BF0C48006872
:1005D00000F000700028F9D00948406820F00300BE
:1005E000074948600846406840F00200486000BF84
:1005F0000348406800F00C000828F9D10CBD000049
:1006000000100240002002400348C06880F400400F
:100610000149C860704700000010014010B5134840
:10062000006840F001001149086008464068104920
:1006300008400E494860084600680E4908400B49CA
:1006400008600846006820F480200860084640687A
:1006500020F4FE0048604FF41F008860FFF75FFF42
:100660004FF000600449086010BD00000010024017
:100670000000FFF8FFFFF6FE08ED00E0F0B50C46C5
:10068000154600220021068C4FF6FE773E40068478
:10069000028B018C4FF60C7632407E1C06EA031664
:1006A0002E433243104EB0420ED0104EB0420BD00B
:1006B000B0F1804F08D00E4EB04205D00D4EB04282
:1006C00002D00D4EB04206D14FF6FD76314044F0D7
:1006D0000106314305E04FF6F576314044F001065E
:1006E000314302830184F0BD002C014000340140FD
:1006F0000004004000080040000C0040F0B50C462B
:100700001546002200210026078C4FF6EF7C07EAF1
:100710000C070784028B018C4FF6FF7707EA04165B
:1007200040F6FF473A404FF6FF7707EA03373A4370
:100730004FF6FF7707EA05273A43114FB8420ED02C
:10074000104FB8420BD0B0F1804F08D00E4FB842D6
:1007500005D00E4FB84202D00D4FB84206D14FF629
:10076000DF77394046F01007394305E04FF65F77F1
:10077000394044F01007394302830184F0BD000082
:10078000002C0140003401400004004000080040FB
:10079000000C0040F0B50C46154600220021002652
:1007A000078C4FF6FF6C07EA0C070784828B018CDD
:1007B0004FF6FF7707EA04264FF60C773A404FF6DC
:1007C000FF7707EA03172F433A43114FB8420ED081
:1007D000104FB8420BD0B0F1804F08D00E4FB84246
:1007E00005D00E4FB84202D00D4FB84206D14FF699
:1007F000FF57394046F48077394305E04FF2FF5701
:10080000394044F48077394382830184F0BD00008D
:10081000002C01400034014000040040000800406A
:10082000000C0040F0B50C461546002200210026C1
:10083000078C4EF6FF7C07EA0C070784828B018C3D
:100840004FF6FF7707EA043640F6FF473A404FF687
:10085000FF7707EA05273A434FF6FF7707EA0337A2
:100860003A43114FB8420ED0104FB8420BD0B0F1FE
:10087000804F08D00E4FB84205D00E4FB84202D07C
:100880000D4FB84206D14DF6FF77394046F48057F8
:10089000394305E047F6FF57394044F48057394360
:1008A00082830184F0BD0000002C0140003401402F
:1008B0000004004000080040000C004010B5012179
:1008C000880700F077F8012808D122488088401C6A
:1008D000204988800121880700F051F8022148074B
:1008E00000F068F8012833D10221800700F047F8B2
:1008F0001848407878B900214FF0804000F0D4F8D3
:10090000012014494870002088800870022148079F
:1009100000F0C1F81CE04FF0804000F03FF80D49B6
:100920004880002048700120087000208880002145
:100930004FF0804000F0AFF806484088401C054961
:10094000898840F27122514300EB0110024908608E
:1009500010BD0000000000200800002010B501219B
:10096000044800F01EF8012803D10121014800F0DD
:1009700003F810BD00100040CA4302827047CA430A
:100980000282704721B1028842F00102028004E035
:1009900002884FF6FE731A40028070470146888E27
:1009A000704702460020138A0B400BB1012000E083
:1009B0000020704730B50246002000230024158A2D
:1009C00005EA0103958905EA010413B10CB1012080
:1009D00000E0002030BD000070B505460C462448FC
:1009E00085420ED0234885420BD0B5F1804F08D008
:1009F0002148854205D02148854202D020488542C1
:100A000000D100E000BF208850B92389A288618806
:100A10002846FFF733FEE188284600F047F825E036
:100A2000208804280AD12389A28861882846FFF7F4
:100A300065FEE188284600F042F817E02088082883
:100A40000AD12389A28861882846FFF7A3FEE1889E
:100A5000284600F041F809E02389A28861882846E9
:100A6000FFF7E0FEE188284600F03FF870BD000087
:100A7000002C014000340140000400400008004008
:100A8000000C00401AB183890B43838102E0838903
:100A90008B43838170470A460021018C4FF6FD731A
:100AA000194011430184704781847047028B4FF6CF
:100AB000F3731A400283028B0A4302837047028B4E
:100AC0004FF2FF331A400283028B4FF6FF7303EAA3
:100AD00001231A4302837047828B4FF6F3731A4047
:100AE0008283828B0A4382837047828B4FF2FF336B
:100AF0001A408283828B4FF6FF7303EA01231A4365
:100B000082837047002202881D4B98420ED01D4BF5
:100B100098420BD0B0F1804F08D01B4B984205D0C3
:100B20001A4B984202D01A4B984204D14FF68F7359
:100B30001A404B881A43174B984207D0164B9842DD
:100B400004D04FF6FF431A40CB881A4302808B88AB
:100B500083850B8803850A4B98420BD0094B98423A
:100B600008D00E4B984205D00D4B984202D00D4B49
:100B7000984201D10B7A03860123838270470000DB
:100B8000002C0140003401400004004000080040F7
:100B9000000C0040001000400014004000400140E4
:100BA000004401400048014000BFFEE702E008C8E1
:100BB000121F08C1002AFAD170477047002001E0D7
:100BC00001C1121F002AFBD17047FFF7A7FB0121CB
:100BD000C802FFF7DDFAFFF71DFC00BFFEE70000CB
:100BE000000C0008000000200C000000AC0B000806
:100BF0000C0C00080C00002004040000BC0B0008D2
:0C0C0000000000000000000000000000E8
:0400000508000131BD
:00000001FF
